{
  "_format": "hh-sol-artifact-1",
  "contractName": "MyToken",
  "sourceName": "contracts/MyNFT.sol",
  "abi": [
    {
      "inputs": [],
      "stateMutability": "nonpayable",
      "type": "constructor"
    },
    {
      "anonymous": false,
      "inputs": [
        {
          "indexed": true,
          "internalType": "address",
          "name": "owner",
          "type": "address"
        },
        {
          "indexed": true,
          "internalType": "address",
          "name": "approved",
          "type": "address"
        },
        {
          "indexed": true,
          "internalType": "uint256",
          "name": "tokenId",
          "type": "uint256"
        }
      ],
      "name": "Approval",
      "type": "event"
    },
    {
      "anonymous": false,
      "inputs": [
        {
          "indexed": true,
          "internalType": "address",
          "name": "owner",
          "type": "address"
        },
        {
          "indexed": true,
          "internalType": "address",
          "name": "operator",
          "type": "address"
        },
        {
          "indexed": false,
          "internalType": "bool",
          "name": "approved",
          "type": "bool"
        }
      ],
      "name": "ApprovalForAll",
      "type": "event"
    },
    {
      "anonymous": false,
      "inputs": [
        {
          "indexed": true,
          "internalType": "address",
          "name": "previousOwner",
          "type": "address"
        },
        {
          "indexed": true,
          "internalType": "address",
          "name": "newOwner",
          "type": "address"
        }
      ],
      "name": "OwnershipTransferred",
      "type": "event"
    },
    {
      "anonymous": false,
      "inputs": [
        {
          "indexed": true,
          "internalType": "address",
          "name": "from",
          "type": "address"
        },
        {
          "indexed": true,
          "internalType": "address",
          "name": "to",
          "type": "address"
        },
        {
          "indexed": true,
          "internalType": "uint256",
          "name": "tokenId",
          "type": "uint256"
        }
      ],
      "name": "Transfer",
      "type": "event"
    },
    {
      "inputs": [
        {
          "internalType": "address",
          "name": "to",
          "type": "address"
        },
        {
          "internalType": "uint256",
          "name": "tokenId",
          "type": "uint256"
        }
      ],
      "name": "approve",
      "outputs": [],
      "stateMutability": "nonpayable",
      "type": "function"
    },
    {
      "inputs": [
        {
          "internalType": "address",
          "name": "owner",
          "type": "address"
        }
      ],
      "name": "balanceOf",
      "outputs": [
        {
          "internalType": "uint256",
          "name": "",
          "type": "uint256"
        }
      ],
      "stateMutability": "view",
      "type": "function"
    },
    {
      "inputs": [],
      "name": "count",
      "outputs": [
        {
          "internalType": "uint256",
          "name": "",
          "type": "uint256"
        }
      ],
      "stateMutability": "view",
      "type": "function"
    },
    {
      "inputs": [
        {
          "internalType": "uint256",
          "name": "tokenId",
          "type": "uint256"
        }
      ],
      "name": "getApproved",
      "outputs": [
        {
          "internalType": "address",
          "name": "",
          "type": "address"
        }
      ],
      "stateMutability": "view",
      "type": "function"
    },
    {
      "inputs": [
        {
          "internalType": "address",
          "name": "owner",
          "type": "address"
        },
        {
          "internalType": "address",
          "name": "operator",
          "type": "address"
        }
      ],
      "name": "isApprovedForAll",
      "outputs": [
        {
          "internalType": "bool",
          "name": "",
          "type": "bool"
        }
      ],
      "stateMutability": "view",
      "type": "function"
    },
    {
      "inputs": [
        {
          "internalType": "string",
          "name": "uri",
          "type": "string"
        }
      ],
      "name": "isContentOwned",
      "outputs": [
        {
          "internalType": "bool",
          "name": "",
          "type": "bool"
        }
      ],
      "stateMutability": "view",
      "type": "function"
    },
    {
      "inputs": [],
      "name": "name",
      "outputs": [
        {
          "internalType": "string",
          "name": "",
          "type": "string"
        }
      ],
      "stateMutability": "view",
      "type": "function"
    },
    {
      "inputs": [],
      "name": "owner",
      "outputs": [
        {
          "internalType": "address",
          "name": "",
          "type": "address"
        }
      ],
      "stateMutability": "view",
      "type": "function"
    },
    {
      "inputs": [
        {
          "internalType": "uint256",
          "name": "tokenId",
          "type": "uint256"
        }
      ],
      "name": "ownerOf",
      "outputs": [
        {
          "internalType": "address",
          "name": "",
          "type": "address"
        }
      ],
      "stateMutability": "view",
      "type": "function"
    },
    {
      "inputs": [
        {
          "internalType": "address",
          "name": "recipient",
          "type": "address"
        },
        {
          "internalType": "string",
          "name": "metadataURI",
          "type": "string"
        }
      ],
      "name": "payToMint",
      "outputs": [
        {
          "internalType": "uint256",
          "name": "",
          "type": "uint256"
        }
      ],
      "stateMutability": "payable",
      "type": "function"
    },
    {
      "inputs": [],
      "name": "renounceOwnership",
      "outputs": [],
      "stateMutability": "nonpayable",
      "type": "function"
    },
    {
      "inputs": [
        {
          "internalType": "address",
          "name": "to",
          "type": "address"
        },
        {
          "internalType": "string",
          "name": "uri",
          "type": "string"
        }
      ],
      "name": "safeMint",
      "outputs": [],
      "stateMutability": "nonpayable",
      "type": "function"
    },
    {
      "inputs": [
        {
          "internalType": "address",
          "name": "from",
          "type": "address"
        },
        {
          "internalType": "address",
          "name": "to",
          "type": "address"
        },
        {
          "internalType": "uint256",
          "name": "tokenId",
          "type": "uint256"
        }
      ],
      "name": "safeTransferFrom",
      "outputs": [],
      "stateMutability": "nonpayable",
      "type": "function"
    },
    {
      "inputs": [
        {
          "internalType": "address",
          "name": "from",
          "type": "address"
        },
        {
          "internalType": "address",
          "name": "to",
          "type": "address"
        },
        {
          "internalType": "uint256",
          "name": "tokenId",
          "type": "uint256"
        },
        {
          "internalType": "bytes",
          "name": "data",
          "type": "bytes"
        }
      ],
      "name": "safeTransferFrom",
      "outputs": [],
      "stateMutability": "nonpayable",
      "type": "function"
    },
    {
      "inputs": [
        {
          "internalType": "address",
          "name": "operator",
          "type": "address"
        },
        {
          "internalType": "bool",
          "name": "approved",
          "type": "bool"
        }
      ],
      "name": "setApprovalForAll",
      "outputs": [],
      "stateMutability": "nonpayable",
      "type": "function"
    },
    {
      "inputs": [
        {
          "internalType": "bytes4",
          "name": "interfaceId",
          "type": "bytes4"
        }
      ],
      "name": "supportsInterface",
      "outputs": [
        {
          "internalType": "bool",
          "name": "",
          "type": "bool"
        }
      ],
      "stateMutability": "view",
      "type": "function"
    },
    {
      "inputs": [],
      "name": "symbol",
      "outputs": [
        {
          "internalType": "string",
          "name": "",
          "type": "string"
        }
      ],
      "stateMutability": "view",
      "type": "function"
    },
    {
      "inputs": [
        {
          "internalType": "uint256",
          "name": "tokenId",
          "type": "uint256"
        }
      ],
      "name": "tokenURI",
      "outputs": [
        {
          "internalType": "string",
          "name": "",
          "type": "string"
        }
      ],
      "stateMutability": "view",
      "type": "function"
    },
    {
      "inputs": [
        {
          "internalType": "address",
          "name": "from",
          "type": "address"
        },
        {
          "internalType": "address",
          "name": "to",
          "type": "address"
        },
        {
          "internalType": "uint256",
          "name": "tokenId",
          "type": "uint256"
        }
      ],
      "name": "transferFrom",
      "outputs": [],
      "stateMutability": "nonpayable",
      "type": "function"
    },
    {
      "inputs": [
        {
          "internalType": "address",
          "name": "newOwner",
          "type": "address"
        }
      ],
      "name": "transferOwnership",
      "outputs": [],
      "stateMutability": "nonpayable",
      "type": "function"
    }
  ],
  "bytecode": "0x60806040523480156200001157600080fd5b506040518060400160405280600781526020017f4d79546f6b656e000000000000000000000000000000000000000000000000008152506040518060400160405280600381526020017f465952000000000000000000000000000000000000000000000000000000000081525081600090816200008f919062000412565b508060019081620000a1919062000412565b505050620000c4620000b8620000ca60201b60201c565b620000d260201b60201c565b620004f9565b600033905090565b6000600760009054906101000a900473ffffffffffffffffffffffffffffffffffffffff16905081600760006101000a81548173ffffffffffffffffffffffffffffffffffffffff021916908373ffffffffffffffffffffffffffffffffffffffff1602179055508173ffffffffffffffffffffffffffffffffffffffff168173ffffffffffffffffffffffffffffffffffffffff167f8be0079c531659141344cd1fd0a4f28419497f9722a3daafe3b4186f6b6457e060405160405180910390a35050565b600081519050919050565b7f4e487b7100000000000000000000000000000000000000000000000000000000600052604160045260246000fd5b7f4e487b7100000000000000000000000000000000000000000000000000000000600052602260045260246000fd5b600060028204905060018216806200021a57607f821691505b60208210810362000230576200022f620001d2565b5b50919050565b60008190508160005260206000209050919050565b60006020601f8301049050919050565b600082821b905092915050565b6000600883026200029a7fffffffffffffffffffffffffffffffffffffffffffffffffffffffffffffffff826200025b565b620002a686836200025b565b95508019841693508086168417925050509392505050565b6000819050919050565b6000819050919050565b6000620002f3620002ed620002e784620002be565b620002c8565b620002be565b9050919050565b6000819050919050565b6200030f83620002d2565b620003276200031e82620002fa565b84845462000268565b825550505050565b600090565b6200033e6200032f565b6200034b81848462000304565b505050565b5b8181101562000373576200036760008262000334565b60018101905062000351565b5050565b601f821115620003c2576200038c8162000236565b62000397846200024b565b81016020851015620003a7578190505b620003bf620003b6856200024b565b83018262000350565b50505b505050565b600082821c905092915050565b6000620003e760001984600802620003c7565b1980831691505092915050565b6000620004028383620003d4565b9150826002028217905092915050565b6200041d8262000198565b67ffffffffffffffff811115620004395762000438620001a3565b5b62000445825462000201565b6200045282828562000377565b600060209050601f8311600181146200048a576000841562000475578287015190505b620004818582620003f4565b865550620004f1565b601f1984166200049a8662000236565b60005b82811015620004c4578489015182556001820191506020850194506020810190506200049d565b86831015620004e45784890151620004e0601f891682620003d4565b8355505b6001600288020188555050505b505050505050565b61347580620005096000396000f3fe60806040526004361061011f5760003560e01c8063715018a6116100a0578063b88d4fde11610064578063b88d4fde146103ec578063c87b56dd14610415578063d204c45e14610452578063e985e9c51461047b578063f2fde38b146104b85761011f565b8063715018a6146103195780638da5cb5b1461033057806395d89b411461035b5780639f1cabc614610386578063a22cb465146103c35761011f565b806323b872dd116100e757806323b872dd1461021d57806342842e0e14610246578063615fd9e21461026f5780636352211e1461029f57806370a08231146102dc5761011f565b806301ffc9a71461012457806306661abd1461016157806306fdde031461018c578063081812fc146101b7578063095ea7b3146101f4575b600080fd5b34801561013057600080fd5b5061014b60048036038101906101469190612097565b6104e1565b60405161015891906120df565b60405180910390f35b34801561016d57600080fd5b506101766105c3565b6040516101839190612113565b60405180910390f35b34801561019857600080fd5b506101a16105d4565b6040516101ae91906121be565b60405180910390f35b3480156101c357600080fd5b506101de60048036038101906101d9919061220c565b610666565b6040516101eb919061227a565b60405180910390f35b34801561020057600080fd5b5061021b600480360381019061021691906122c1565b6106ac565b005b34801561022957600080fd5b50610244600480360381019061023f9190612301565b6107c3565b005b34801561025257600080fd5b5061026d60048036038101906102689190612301565b610823565b005b61028960048036038101906102849190612489565b610843565b6040516102969190612113565b60405180910390f35b3480156102ab57600080fd5b506102c660048036038101906102c1919061220c565b61096e565b6040516102d3919061227a565b60405180910390f35b3480156102e857600080fd5b5061030360048036038101906102fe91906124e5565b6109f4565b6040516103109190612113565b60405180910390f35b34801561032557600080fd5b5061032e610aab565b005b34801561033c57600080fd5b50610345610abf565b604051610352919061227a565b60405180910390f35b34801561036757600080fd5b50610370610ae9565b60405161037d91906121be565b60405180910390f35b34801561039257600080fd5b506103ad60048036038101906103a89190612512565b610b7b565b6040516103ba91906120df565b60405180910390f35b3480156103cf57600080fd5b506103ea60048036038101906103e59190612587565b610bb6565b005b3480156103f857600080fd5b50610413600480360381019061040e9190612668565b610bcc565b005b34801561042157600080fd5b5061043c6004803603810190610437919061220c565b610c2e565b60405161044991906121be565b60405180910390f35b34801561045e57600080fd5b5061047960048036038101906104749190612489565b610c40565b005b34801561048757600080fd5b506104a2600480360381019061049d91906126eb565b610cb1565b6040516104af91906120df565b60405180910390f35b3480156104c457600080fd5b506104df60048036038101906104da91906124e5565b610d45565b005b60007f80ac58cd000000000000000000000000000000000000000000000000000000007bffffffffffffffffffffffffffffffffffffffffffffffffffffffff1916827bffffffffffffffffffffffffffffffffffffffffffffffffffffffff191614806105ac57507f5b5e139f000000000000000000000000000000000000000000000000000000007bffffffffffffffffffffffffffffffffffffffffffffffffffffffff1916827bffffffffffffffffffffffffffffffffffffffffffffffffffffffff1916145b806105bc57506105bb82610dc8565b5b9050919050565b60006105cf6008610e32565b905090565b6060600080546105e39061275a565b80601f016020809104026020016040519081016040528092919081815260200182805461060f9061275a565b801561065c5780601f106106315761010080835404028352916020019161065c565b820191906000526020600020905b81548152906001019060200180831161063f57829003601f168201915b5050505050905090565b600061067182610e40565b6004600083815260200190815260200160002060009054906101000a900473ffffffffffffffffffffffffffffffffffffffff169050919050565b60006106b78261096e565b90508073ffffffffffffffffffffffffffffffffffffffff168373ffffffffffffffffffffffffffffffffffffffff1603610727576040517f08c379a000000000000000000000000000000000000000000000000000000000815260040161071e906127fd565b60405180910390fd5b8073ffffffffffffffffffffffffffffffffffffffff16610746610e8b565b73ffffffffffffffffffffffffffffffffffffffff16148061077557506107748161076f610e8b565b610cb1565b5b6107b4576040517f08c379a00000000000000000000000000000000000000000000000000000000081526004016107ab9061288f565b60405180910390fd5b6107be8383610e93565b505050565b6107d46107ce610e8b565b82610f4c565b610813576040517f08c379a000000000000000000000000000000000000000000000000000000000815260040161080a90612921565b60405180910390fd5b61081e838383610fe1565b505050565b61083e83838360405180602001604052806000815250610bcc565b505050565b60006001600983604051610857919061297d565b908152602001604051809103902060009054906101000a900460ff1660ff16036108b6576040517f08c379a00000000000000000000000000000000000000000000000000000000081526004016108ad906129e0565b60405180910390fd5b66b1a2bc2ec50000341015610900576040517f08c379a00000000000000000000000000000000000000000000000000000000081526004016108f790612a4c565b60405180910390fd5b600061090c6008610e32565b905061091860086112da565b600160098460405161092a919061297d565b908152602001604051809103902060006101000a81548160ff021916908360ff16021790555061095a84826112f0565b610964818461150d565b8091505092915050565b60008061097a8361157a565b9050600073ffffffffffffffffffffffffffffffffffffffff168173ffffffffffffffffffffffffffffffffffffffff16036109eb576040517f08c379a00000000000000000000000000000000000000000000000000000000081526004016109e290612ab8565b60405180910390fd5b80915050919050565b60008073ffffffffffffffffffffffffffffffffffffffff168273ffffffffffffffffffffffffffffffffffffffff1603610a64576040517f08c379a0000000000000000000000000000000000000000000000000000000008152600401610a5b90612b4a565b60405180910390fd5b600360008373ffffffffffffffffffffffffffffffffffffffff1673ffffffffffffffffffffffffffffffffffffffff168152602001908152602001600020549050919050565b610ab36115b7565b610abd6000611635565b565b6000600760009054906101000a900473ffffffffffffffffffffffffffffffffffffffff16905090565b606060018054610af89061275a565b80601f0160208091040260200160405190810160405280929190818152602001828054610b249061275a565b8015610b715780601f10610b4657610100808354040283529160200191610b71565b820191906000526020600020905b815481529060010190602001808311610b5457829003601f168201915b5050505050905090565b60006001600983604051610b8f919061297d565b908152602001604051809103902060009054906101000a900460ff1660ff16149050919050565b610bc8610bc1610e8b565b83836116fb565b5050565b610bdd610bd7610e8b565b83610f4c565b610c1c576040517f08c379a0000000000000000000000000000000000000000000000000000000008152600401610c1390612921565b60405180910390fd5b610c2884848484611867565b50505050565b6060610c39826118c3565b9050919050565b610c486115b7565b6000610c546008610e32565b9050610c6060086112da565b610c6a83826119d5565b610c74818361150d565b6001600983604051610c86919061297d565b908152602001604051809103902060006101000a81548160ff021916908360ff160217905550505050565b6000600560008473ffffffffffffffffffffffffffffffffffffffff1673ffffffffffffffffffffffffffffffffffffffff16815260200190815260200160002060008373ffffffffffffffffffffffffffffffffffffffff1673ffffffffffffffffffffffffffffffffffffffff16815260200190815260200160002060009054906101000a900460ff16905092915050565b610d4d6115b7565b600073ffffffffffffffffffffffffffffffffffffffff168173ffffffffffffffffffffffffffffffffffffffff1603610dbc576040517f08c379a0000000000000000000000000000000000000000000000000000000008152600401610db390612bdc565b60405180910390fd5b610dc581611635565b50565b60007f01ffc9a7000000000000000000000000000000000000000000000000000000007bffffffffffffffffffffffffffffffffffffffffffffffffffffffff1916827bffffffffffffffffffffffffffffffffffffffffffffffffffffffff1916149050919050565b600081600001549050919050565b610e49816119f3565b610e88576040517f08c379a0000000000000000000000000000000000000000000000000000000008152600401610e7f90612ab8565b60405180910390fd5b50565b600033905090565b816004600083815260200190815260200160002060006101000a81548173ffffffffffffffffffffffffffffffffffffffff021916908373ffffffffffffffffffffffffffffffffffffffff160217905550808273ffffffffffffffffffffffffffffffffffffffff16610f068361096e565b73ffffffffffffffffffffffffffffffffffffffff167f8c5be1e5ebec7d5bd14f71427d1e84f3dd0314c0f7b2291e5b200ac8c7c3b92560405160405180910390a45050565b600080610f588361096e565b90508073ffffffffffffffffffffffffffffffffffffffff168473ffffffffffffffffffffffffffffffffffffffff161480610f9a5750610f998185610cb1565b5b80610fd857508373ffffffffffffffffffffffffffffffffffffffff16610fc084610666565b73ffffffffffffffffffffffffffffffffffffffff16145b91505092915050565b8273ffffffffffffffffffffffffffffffffffffffff166110018261096e565b73ffffffffffffffffffffffffffffffffffffffff1614611057576040517f08c379a000000000000000000000000000000000000000000000000000000000815260040161104e90612c6e565b60405180910390fd5b600073ffffffffffffffffffffffffffffffffffffffff168273ffffffffffffffffffffffffffffffffffffffff16036110c6576040517f08c379a00000000000000000000000000000000000000000000000000000000081526004016110bd90612d00565b60405180910390fd5b6110d38383836001611a34565b8273ffffffffffffffffffffffffffffffffffffffff166110f38261096e565b73ffffffffffffffffffffffffffffffffffffffff1614611149576040517f08c379a000000000000000000000000000000000000000000000000000000000815260040161114090612c6e565b60405180910390fd5b6004600082815260200190815260200160002060006101000a81549073ffffffffffffffffffffffffffffffffffffffff02191690556001600360008573ffffffffffffffffffffffffffffffffffffffff1673ffffffffffffffffffffffffffffffffffffffff168152602001908152602001600020600082825403925050819055506001600360008473ffffffffffffffffffffffffffffffffffffffff1673ffffffffffffffffffffffffffffffffffffffff16815260200190815260200160002060008282540192505081905550816002600083815260200190815260200160002060006101000a81548173ffffffffffffffffffffffffffffffffffffffff021916908373ffffffffffffffffffffffffffffffffffffffff160217905550808273ffffffffffffffffffffffffffffffffffffffff168473ffffffffffffffffffffffffffffffffffffffff167fddf252ad1be2c89b69c2b068fc378daa952ba7f163c4a11628f55a4df523b3ef60405160405180910390a46112d58383836001611b5a565b505050565b6001816000016000828254019250508190555050565b600073ffffffffffffffffffffffffffffffffffffffff168273ffffffffffffffffffffffffffffffffffffffff160361135f576040517f08c379a000000000000000000000000000000000000000000000000000000000815260040161135690612d6c565b60405180910390fd5b611368816119f3565b156113a8576040517f08c379a000000000000000000000000000000000000000000000000000000000815260040161139f90612dd8565b60405180910390fd5b6113b6600083836001611a34565b6113bf816119f3565b156113ff576040517f08c379a00000000000000000000000000000000000000000000000000000000081526004016113f690612dd8565b60405180910390fd5b6001600360008473ffffffffffffffffffffffffffffffffffffffff1673ffffffffffffffffffffffffffffffffffffffff16815260200190815260200160002060008282540192505081905550816002600083815260200190815260200160002060006101000a81548173ffffffffffffffffffffffffffffffffffffffff021916908373ffffffffffffffffffffffffffffffffffffffff160217905550808273ffffffffffffffffffffffffffffffffffffffff16600073ffffffffffffffffffffffffffffffffffffffff167fddf252ad1be2c89b69c2b068fc378daa952ba7f163c4a11628f55a4df523b3ef60405160405180910390a4611509600083836001611b5a565b5050565b611516826119f3565b611555576040517f08c379a000000000000000000000000000000000000000000000000000000000815260040161154c90612e6a565b60405180910390fd5b806006600084815260200190815260200160002090816115759190613036565b505050565b60006002600083815260200190815260200160002060009054906101000a900473ffffffffffffffffffffffffffffffffffffffff169050919050565b6115bf610e8b565b73ffffffffffffffffffffffffffffffffffffffff166115dd610abf565b73ffffffffffffffffffffffffffffffffffffffff1614611633576040517f08c379a000000000000000000000000000000000000000000000000000000000815260040161162a90613154565b60405180910390fd5b565b6000600760009054906101000a900473ffffffffffffffffffffffffffffffffffffffff16905081600760006101000a81548173ffffffffffffffffffffffffffffffffffffffff021916908373ffffffffffffffffffffffffffffffffffffffff1602179055508173ffffffffffffffffffffffffffffffffffffffff168173ffffffffffffffffffffffffffffffffffffffff167f8be0079c531659141344cd1fd0a4f28419497f9722a3daafe3b4186f6b6457e060405160405180910390a35050565b8173ffffffffffffffffffffffffffffffffffffffff168373ffffffffffffffffffffffffffffffffffffffff1603611769576040517f08c379a0000000000000000000000000000000000000000000000000000000008152600401611760906131c0565b60405180910390fd5b80600560008573ffffffffffffffffffffffffffffffffffffffff1673ffffffffffffffffffffffffffffffffffffffff16815260200190815260200160002060008473ffffffffffffffffffffffffffffffffffffffff1673ffffffffffffffffffffffffffffffffffffffff16815260200190815260200160002060006101000a81548160ff0219169083151502179055508173ffffffffffffffffffffffffffffffffffffffff168373ffffffffffffffffffffffffffffffffffffffff167f17307eab39ab6107e8899845ad3d59bd9653f200f220920489ca2b5937696c318360405161185a91906120df565b60405180910390a3505050565b611872848484610fe1565b61187e84848484611b60565b6118bd576040517f08c379a00000000000000000000000000000000000000000000000000000000081526004016118b490613252565b60405180910390fd5b50505050565b60606118ce82610e40565b60006006600084815260200190815260200160002080546118ee9061275a565b80601f016020809104026020016040519081016040528092919081815260200182805461191a9061275a565b80156119675780601f1061193c57610100808354040283529160200191611967565b820191906000526020600020905b81548152906001019060200180831161194a57829003601f168201915b505050505090506000611978611ce7565b9050600081510361198d5781925050506119d0565b6000825111156119c25780826040516020016119aa929190613272565b604051602081830303815290604052925050506119d0565b6119cb84611d24565b925050505b919050565b6119ef828260405180602001604052806000815250611d8c565b5050565b60008073ffffffffffffffffffffffffffffffffffffffff16611a158361157a565b73ffffffffffffffffffffffffffffffffffffffff1614159050919050565b6001811115611b5457600073ffffffffffffffffffffffffffffffffffffffff168473ffffffffffffffffffffffffffffffffffffffff1614611ac85780600360008673ffffffffffffffffffffffffffffffffffffffff1673ffffffffffffffffffffffffffffffffffffffff1681526020019081526020016000206000828254611ac091906132c5565b925050819055505b600073ffffffffffffffffffffffffffffffffffffffff168373ffffffffffffffffffffffffffffffffffffffff1614611b535780600360008573ffffffffffffffffffffffffffffffffffffffff1673ffffffffffffffffffffffffffffffffffffffff1681526020019081526020016000206000828254611b4b91906132f9565b925050819055505b5b50505050565b50505050565b6000611b818473ffffffffffffffffffffffffffffffffffffffff16611de7565b15611cda578373ffffffffffffffffffffffffffffffffffffffff1663150b7a02611baa610e8b565b8786866040518563ffffffff1660e01b8152600401611bcc9493929190613382565b6020604051808303816000875af1925050508015611c0857506040513d601f19601f82011682018060405250810190611c0591906133e3565b60015b611c8a573d8060008114611c38576040519150601f19603f3d011682016040523d82523d6000602084013e611c3d565b606091505b506000815103611c82576040517f08c379a0000000000000000000000000000000000000000000000000000000008152600401611c7990613252565b60405180910390fd5b805181602001fd5b63150b7a0260e01b7bffffffffffffffffffffffffffffffffffffffffffffffffffffffff1916817bffffffffffffffffffffffffffffffffffffffffffffffffffffffff191614915050611cdf565b600190505b949350505050565b60606040518060400160405280600781526020017f697066733a2f2f00000000000000000000000000000000000000000000000000815250905090565b6060611d2f82610e40565b6000611d39611ce7565b90506000815111611d595760405180602001604052806000815250611d84565b80611d6384611e0a565b604051602001611d74929190613272565b6040516020818303038152906040525b915050919050565b611d9683836112f0565b611da36000848484611b60565b611de2576040517f08c379a0000000000000000000000000000000000000000000000000000000008152600401611dd990613252565b60405180910390fd5b505050565b6000808273ffffffffffffffffffffffffffffffffffffffff163b119050919050565b606060006001611e1984611ed8565b01905060008167ffffffffffffffff811115611e3857611e3761235e565b5b6040519080825280601f01601f191660200182016040528015611e6a5781602001600182028036833780820191505090505b509050600082602001820190505b600115611ecd578080600190039150507f3031323334353637383961626364656600000000000000000000000000000000600a86061a8153600a8581611ec157611ec0613410565b5b04945060008503611e78575b819350505050919050565b600080600090507a184f03e93ff9f4daa797ed6e38ed64bf6a1f0100000000000000008310611f36577a184f03e93ff9f4daa797ed6e38ed64bf6a1f0100000000000000008381611f2c57611f2b613410565b5b0492506040810190505b6d04ee2d6d415b85acef81000000008310611f73576d04ee2d6d415b85acef81000000008381611f6957611f68613410565b5b0492506020810190505b662386f26fc100008310611fa257662386f26fc100008381611f9857611f97613410565b5b0492506010810190505b6305f5e1008310611fcb576305f5e1008381611fc157611fc0613410565b5b0492506008810190505b6127108310611ff0576127108381611fe657611fe5613410565b5b0492506004810190505b60648310612013576064838161200957612008613410565b5b0492506002810190505b600a8310612022576001810190505b80915050919050565b6000604051905090565b600080fd5b600080fd5b60007fffffffff0000000000000000000000000000000000000000000000000000000082169050919050565b6120748161203f565b811461207f57600080fd5b50565b6000813590506120918161206b565b92915050565b6000602082840312156120ad576120ac612035565b5b60006120bb84828501612082565b91505092915050565b60008115159050919050565b6120d9816120c4565b82525050565b60006020820190506120f460008301846120d0565b92915050565b6000819050919050565b61210d816120fa565b82525050565b60006020820190506121286000830184612104565b92915050565b600081519050919050565b600082825260208201905092915050565b60005b8381101561216857808201518184015260208101905061214d565b60008484015250505050565b6000601f19601f8301169050919050565b60006121908261212e565b61219a8185612139565b93506121aa81856020860161214a565b6121b381612174565b840191505092915050565b600060208201905081810360008301526121d88184612185565b905092915050565b6121e9816120fa565b81146121f457600080fd5b50565b600081359050612206816121e0565b92915050565b60006020828403121561222257612221612035565b5b6000612230848285016121f7565b91505092915050565b600073ffffffffffffffffffffffffffffffffffffffff82169050919050565b600061226482612239565b9050919050565b61227481612259565b82525050565b600060208201905061228f600083018461226b565b92915050565b61229e81612259565b81146122a957600080fd5b50565b6000813590506122bb81612295565b92915050565b600080604083850312156122d8576122d7612035565b5b60006122e6858286016122ac565b92505060206122f7858286016121f7565b9150509250929050565b60008060006060848603121561231a57612319612035565b5b6000612328868287016122ac565b9350506020612339868287016122ac565b925050604061234a868287016121f7565b9150509250925092565b600080fd5b600080fd5b7f4e487b7100000000000000000000000000000000000000000000000000000000600052604160045260246000fd5b61239682612174565b810181811067ffffffffffffffff821117156123b5576123b461235e565b5b80604052505050565b60006123c861202b565b90506123d4828261238d565b919050565b600067ffffffffffffffff8211156123f4576123f361235e565b5b6123fd82612174565b9050602081019050919050565b82818337600083830152505050565b600061242c612427846123d9565b6123be565b90508281526020810184848401111561244857612447612359565b5b61245384828561240a565b509392505050565b600082601f8301126124705761246f612354565b5b8135612480848260208601612419565b91505092915050565b600080604083850312156124a05761249f612035565b5b60006124ae858286016122ac565b925050602083013567ffffffffffffffff8111156124cf576124ce61203a565b5b6124db8582860161245b565b9150509250929050565b6000602082840312156124fb576124fa612035565b5b6000612509848285016122ac565b91505092915050565b60006020828403121561252857612527612035565b5b600082013567ffffffffffffffff8111156125465761254561203a565b5b6125528482850161245b565b91505092915050565b612564816120c4565b811461256f57600080fd5b50565b6000813590506125818161255b565b92915050565b6000806040838503121561259e5761259d612035565b5b60006125ac858286016122ac565b92505060206125bd85828601612572565b9150509250929050565b600067ffffffffffffffff8211156125e2576125e161235e565b5b6125eb82612174565b9050602081019050919050565b600061260b612606846125c7565b6123be565b90508281526020810184848401111561262757612626612359565b5b61263284828561240a565b509392505050565b600082601f83011261264f5761264e612354565b5b813561265f8482602086016125f8565b91505092915050565b6000806000806080858703121561268257612681612035565b5b6000612690878288016122ac565b94505060206126a1878288016122ac565b93505060406126b2878288016121f7565b925050606085013567ffffffffffffffff8111156126d3576126d261203a565b5b6126df8782880161263a565b91505092959194509250565b6000806040838503121561270257612701612035565b5b6000612710858286016122ac565b9250506020612721858286016122ac565b9150509250929050565b7f4e487b7100000000000000000000000000000000000000000000000000000000600052602260045260246000fd5b6000600282049050600182168061277257607f821691505b6020821081036127855761278461272b565b5b50919050565b7f4552433732313a20617070726f76616c20746f2063757272656e74206f776e6560008201527f7200000000000000000000000000000000000000000000000000000000000000602082015250565b60006127e7602183612139565b91506127f28261278b565b604082019050919050565b60006020820190508181036000830152612816816127da565b9050919050565b7f4552433732313a20617070726f76652063616c6c6572206973206e6f7420746f60008201527f6b656e206f776e6572206f7220617070726f76656420666f7220616c6c000000602082015250565b6000612879603d83612139565b91506128848261281d565b604082019050919050565b600060208201905081810360008301526128a88161286c565b9050919050565b7f4552433732313a2063616c6c6572206973206e6f7420746f6b656e206f776e6560008201527f72206f7220617070726f76656400000000000000000000000000000000000000602082015250565b600061290b602d83612139565b9150612916826128af565b604082019050919050565b6000602082019050818103600083015261293a816128fe565b9050919050565b600081905092915050565b60006129578261212e565b6129618185612941565b935061297181856020860161214a565b80840191505092915050565b6000612989828461294c565b915081905092915050565b7f4e465420616c7265616479206d696e7465642100000000000000000000000000600082015250565b60006129ca601383612139565b91506129d582612994565b602082019050919050565b600060208201905081810360008301526129f9816129bd565b9050919050565b7f4e65656420746f20706179207570210000000000000000000000000000000000600082015250565b6000612a36600f83612139565b9150612a4182612a00565b602082019050919050565b60006020820190508181036000830152612a6581612a29565b9050919050565b7f4552433732313a20696e76616c696420746f6b656e2049440000000000000000600082015250565b6000612aa2601883612139565b9150612aad82612a6c565b602082019050919050565b60006020820190508181036000830152612ad181612a95565b9050919050565b7f4552433732313a2061646472657373207a65726f206973206e6f74206120766160008201527f6c6964206f776e65720000000000000000000000000000000000000000000000602082015250565b6000612b34602983612139565b9150612b3f82612ad8565b604082019050919050565b60006020820190508181036000830152612b6381612b27565b9050919050565b7f4f776e61626c653a206e6577206f776e657220697320746865207a65726f206160008201527f6464726573730000000000000000000000000000000000000000000000000000602082015250565b6000612bc6602683612139565b9150612bd182612b6a565b604082019050919050565b60006020820190508181036000830152612bf581612bb9565b9050919050565b7f4552433732313a207472616e736665722066726f6d20696e636f72726563742060008201527f6f776e6572000000000000000000000000000000000000000000000000000000602082015250565b6000612c58602583612139565b9150612c6382612bfc565b604082019050919050565b60006020820190508181036000830152612c8781612c4b565b9050919050565b7f4552433732313a207472616e7366657220746f20746865207a65726f2061646460008201527f7265737300000000000000000000000000000000000000000000000000000000602082015250565b6000612cea602483612139565b9150612cf582612c8e565b604082019050919050565b60006020820190508181036000830152612d1981612cdd565b9050919050565b7f4552433732313a206d696e7420746f20746865207a65726f2061646472657373600082015250565b6000612d56602083612139565b9150612d6182612d20565b602082019050919050565b60006020820190508181036000830152612d8581612d49565b9050919050565b7f4552433732313a20746f6b656e20616c7265616479206d696e74656400000000600082015250565b6000612dc2601c83612139565b9150612dcd82612d8c565b602082019050919050565b60006020820190508181036000830152612df181612db5565b9050919050565b7f45524337323155524953746f726167653a2055524920736574206f66206e6f6e60008201527f6578697374656e7420746f6b656e000000000000000000000000000000000000602082015250565b6000612e54602e83612139565b9150612e5f82612df8565b604082019050919050565b60006020820190508181036000830152612e8381612e47565b9050919050565b60008190508160005260206000209050919050565b60006020601f8301049050919050565b600082821b905092915050565b600060088302612eec7fffffffffffffffffffffffffffffffffffffffffffffffffffffffffffffffff82612eaf565b612ef68683612eaf565b95508019841693508086168417925050509392505050565b6000819050919050565b6000612f33612f2e612f29846120fa565b612f0e565b6120fa565b9050919050565b6000819050919050565b612f4d83612f18565b612f61612f5982612f3a565b848454612ebc565b825550505050565b600090565b612f76612f69565b612f81818484612f44565b505050565b5b81811015612fa557612f9a600082612f6e565b600181019050612f87565b5050565b601f821115612fea57612fbb81612e8a565b612fc484612e9f565b81016020851015612fd3578190505b612fe7612fdf85612e9f565b830182612f86565b50505b505050565b600082821c905092915050565b600061300d60001984600802612fef565b1980831691505092915050565b60006130268383612ffc565b9150826002028217905092915050565b61303f8261212e565b67ffffffffffffffff8111156130585761305761235e565b5b613062825461275a565b61306d828285612fa9565b600060209050601f8311600181146130a0576000841561308e578287015190505b613098858261301a565b865550613100565b601f1984166130ae86612e8a565b60005b828110156130d6578489015182556001820191506020850194506020810190506130b1565b868310156130f357848901516130ef601f891682612ffc565b8355505b6001600288020188555050505b505050505050565b7f4f776e61626c653a2063616c6c6572206973206e6f7420746865206f776e6572600082015250565b600061313e602083612139565b915061314982613108565b602082019050919050565b6000602082019050818103600083015261316d81613131565b9050919050565b7f4552433732313a20617070726f766520746f2063616c6c657200000000000000600082015250565b60006131aa601983612139565b91506131b582613174565b602082019050919050565b600060208201905081810360008301526131d98161319d565b9050919050565b7f4552433732313a207472616e7366657220746f206e6f6e20455243373231526560008201527f63656976657220696d706c656d656e7465720000000000000000000000000000602082015250565b600061323c603283612139565b9150613247826131e0565b604082019050919050565b6000602082019050818103600083015261326b8161322f565b9050919050565b600061327e828561294c565b915061328a828461294c565b91508190509392505050565b7f4e487b7100000000000000000000000000000000000000000000000000000000600052601160045260246000fd5b60006132d0826120fa565b91506132db836120fa565b92508282039050818111156132f3576132f2613296565b5b92915050565b6000613304826120fa565b915061330f836120fa565b925082820190508082111561332757613326613296565b5b92915050565b600081519050919050565b600082825260208201905092915050565b60006133548261332d565b61335e8185613338565b935061336e81856020860161214a565b61337781612174565b840191505092915050565b6000608082019050613397600083018761226b565b6133a4602083018661226b565b6133b16040830185612104565b81810360608301526133c38184613349565b905095945050505050565b6000815190506133dd8161206b565b92915050565b6000602082840312156133f9576133f8612035565b5b6000613407848285016133ce565b91505092915050565b7f4e487b7100000000000000000000000000000000000000000000000000000000600052601260045260246000fdfea26469706673582212200dea144c0d26f54c3d684802f1cd16153c049a7b8ab332b15b7e666198d6667664736f6c63430008110033",
  "linkReferences": {},
  "deployedLinkReferences": {}
}